{
    "_format": "hh-sol-artifact-1",
    "contractName": "AudeaumusNFT",
    "sourceName": "contracts/contract.sol",
    "abi": [
        {
            "inputs": [],
            "stateMutability": "nonpayable",
            "type": "constructor"
        },
        {
            "inputs": [],
            "name": "ApprovalCallerNotOwnerNorApproved",
            "type": "error"
        },
        {
            "inputs": [],
            "name": "ApprovalQueryForNonexistentToken",
            "type": "error"
        },
        {
            "inputs": [],
            "name": "ApprovalToCurrentOwner",
            "type": "error"
        },
        {
            "inputs": [],
            "name": "ApproveToCaller",
            "type": "error"
        },
        {
            "inputs": [],
            "name": "BalanceQueryForZeroAddress",
            "type": "error"
        },
        {
            "inputs": [],
            "name": "MintToZeroAddress",
            "type": "error"
        },
        {
            "inputs": [],
            "name": "MintZeroQuantity",
            "type": "error"
        },
        {
            "inputs": [],
            "name": "OwnerQueryForNonexistentToken",
            "type": "error"
        },
        {
            "inputs": [],
            "name": "TransferCallerNotOwnerNorApproved",
            "type": "error"
        },
        {
            "inputs": [],
            "name": "TransferFromIncorrectOwner",
            "type": "error"
        },
        {
            "inputs": [],
            "name": "TransferToNonERC721ReceiverImplementer",
            "type": "error"
        },
        {
            "inputs": [],
            "name": "TransferToZeroAddress",
            "type": "error"
        },
        {
            "anonymous": false,
            "inputs": [
                {
                    "indexed": true,
                    "internalType": "address",
                    "name": "owner",
                    "type": "address"
                },
                {
                    "indexed": true,
                    "internalType": "address",
                    "name": "approved",
                    "type": "address"
                },
                {
                    "indexed": true,
                    "internalType": "uint256",
                    "name": "tokenId",
                    "type": "uint256"
                }
            ],
            "name": "Approval",
            "type": "event"
        },
        {
            "anonymous": false,
            "inputs": [
                {
                    "indexed": true,
                    "internalType": "address",
                    "name": "owner",
                    "type": "address"
                },
                {
                    "indexed": true,
                    "internalType": "address",
                    "name": "operator",
                    "type": "address"
                },
                {
                    "indexed": false,
                    "internalType": "bool",
                    "name": "approved",
                    "type": "bool"
                }
            ],
            "name": "ApprovalForAll",
            "type": "event"
        },
        {
            "anonymous": false,
            "inputs": [
                {
                    "indexed": true,
                    "internalType": "address",
                    "name": "previousOwner",
                    "type": "address"
                },
                {
                    "indexed": true,
                    "internalType": "address",
                    "name": "newOwner",
                    "type": "address"
                }
            ],
            "name": "OwnershipTransferred",
            "type": "event"
        },
        {
            "anonymous": false,
            "inputs": [
                {
                    "indexed": true,
                    "internalType": "address",
                    "name": "from",
                    "type": "address"
                },
                {
                    "indexed": true,
                    "internalType": "address",
                    "name": "to",
                    "type": "address"
                },
                {
                    "indexed": true,
                    "internalType": "uint256",
                    "name": "tokenId",
                    "type": "uint256"
                }
            ],
            "name": "Transfer",
            "type": "event"
        },
        {
            "inputs": [],
            "name": "MAX_PUBLIC_MINT",
            "outputs": [
                {
                    "internalType": "uint256",
                    "name": "",
                    "type": "uint256"
                }
            ],
            "stateMutability": "view",
            "type": "function"
        },
        {
            "inputs": [],
            "name": "MAX_PUBLIC_SUPPLY",
            "outputs": [
                {
                    "internalType": "uint256",
                    "name": "",
                    "type": "uint256"
                }
            ],
            "stateMutability": "view",
            "type": "function"
        },
        {
            "inputs": [],
            "name": "MAX_WHITELIST_MINT",
            "outputs": [
                {
                    "internalType": "uint256",
                    "name": "",
                    "type": "uint256"
                }
            ],
            "stateMutability": "view",
            "type": "function"
        },
        {
            "inputs": [],
            "name": "MAX_WHITELIST_SUPPLY",
            "outputs": [
                {
                    "internalType": "uint256",
                    "name": "",
                    "type": "uint256"
                }
            ],
            "stateMutability": "view",
            "type": "function"
        },
        {
            "inputs": [
                {
                    "internalType": "address",
                    "name": "to",
                    "type": "address"
                },
                {
                    "internalType": "uint256",
                    "name": "tokenId",
                    "type": "uint256"
                }
            ],
            "name": "approve",
            "outputs": [],
            "stateMutability": "nonpayable",
            "type": "function"
        },
        {
            "inputs": [
                {
                    "internalType": "address",
                    "name": "owner",
                    "type": "address"
                }
            ],
            "name": "balanceOf",
            "outputs": [
                {
                    "internalType": "uint256",
                    "name": "",
                    "type": "uint256"
                }
            ],
            "stateMutability": "view",
            "type": "function"
        },
        {
            "inputs": [],
            "name": "baseURI",
            "outputs": [
                {
                    "internalType": "string",
                    "name": "",
                    "type": "string"
                }
            ],
            "stateMutability": "view",
            "type": "function"
        },
        {
            "inputs": [],
            "name": "dropPerStep",
            "outputs": [
                {
                    "internalType": "uint256",
                    "name": "",
                    "type": "uint256"
                }
            ],
            "stateMutability": "view",
            "type": "function"
        },
        {
            "inputs": [],
            "name": "finalPublicPrice",
            "outputs": [
                {
                    "internalType": "uint256",
                    "name": "",
                    "type": "uint256"
                }
            ],
            "stateMutability": "view",
            "type": "function"
        },
        {
            "inputs": [
                {
                    "internalType": "uint256",
                    "name": "tokenId",
                    "type": "uint256"
                }
            ],
            "name": "getApproved",
            "outputs": [
                {
                    "internalType": "address",
                    "name": "",
                    "type": "address"
                }
            ],
            "stateMutability": "view",
            "type": "function"
        },
        {
            "inputs": [],
            "name": "getAuctionPrice",
            "outputs": [
                {
                    "internalType": "uint256",
                    "name": "",
                    "type": "uint256"
                }
            ],
            "stateMutability": "view",
            "type": "function"
        },
        {
            "inputs": [],
            "name": "getMerkleRoot",
            "outputs": [
                {
                    "internalType": "bytes32",
                    "name": "",
                    "type": "bytes32"
                }
            ],
            "stateMutability": "view",
            "type": "function"
        },
        {
            "inputs": [],
            "name": "initialPublicPrice",
            "outputs": [
                {
                    "internalType": "uint256",
                    "name": "",
                    "type": "uint256"
                }
            ],
            "stateMutability": "view",
            "type": "function"
        },
        {
            "inputs": [
                {
                    "internalType": "address",
                    "name": "owner",
                    "type": "address"
                },
                {
                    "internalType": "address",
                    "name": "operator",
                    "type": "address"
                }
            ],
            "name": "isApprovedForAll",
            "outputs": [
                {
                    "internalType": "bool",
                    "name": "",
                    "type": "bool"
                }
            ],
            "stateMutability": "view",
            "type": "function"
        },
        {
            "inputs": [],
            "name": "mintIntervals",
            "outputs": [
                {
                    "internalType": "uint256",
                    "name": "",
                    "type": "uint256"
                }
            ],
            "stateMutability": "view",
            "type": "function"
        },
        {
            "inputs": [
                {
                    "internalType": "uint256",
                    "name": "_amount",
                    "type": "uint256"
                }
            ],
            "name": "mintReserved",
            "outputs": [],
            "stateMutability": "nonpayable",
            "type": "function"
        },
        {
            "inputs": [],
            "name": "name",
            "outputs": [
                {
                    "internalType": "string",
                    "name": "",
                    "type": "string"
                }
            ],
            "stateMutability": "view",
            "type": "function"
        },
        {
            "inputs": [],
            "name": "owner",
            "outputs": [
                {
                    "internalType": "address",
                    "name": "",
                    "type": "address"
                }
            ],
            "stateMutability": "view",
            "type": "function"
        },
        {
            "inputs": [
                {
                    "internalType": "uint256",
                    "name": "tokenId",
                    "type": "uint256"
                }
            ],
            "name": "ownerOf",
            "outputs": [
                {
                    "internalType": "address",
                    "name": "",
                    "type": "address"
                }
            ],
            "stateMutability": "view",
            "type": "function"
        },
        {
            "inputs": [],
            "name": "paused",
            "outputs": [
                {
                    "internalType": "bool",
                    "name": "",
                    "type": "bool"
                }
            ],
            "stateMutability": "view",
            "type": "function"
        },
        {
            "inputs": [],
            "name": "publicMintDuration",
            "outputs": [
                {
                    "internalType": "uint256",
                    "name": "",
                    "type": "uint256"
                }
            ],
            "stateMutability": "view",
            "type": "function"
        },
        {
            "inputs": [
                {
                    "internalType": "uint256",
                    "name": "_quantity",
                    "type": "uint256"
                }
            ],
            "name": "publicSaleMint",
            "outputs": [],
            "stateMutability": "payable",
            "type": "function"
        },
        {
            "inputs": [],
            "name": "renounceOwnership",
            "outputs": [],
            "stateMutability": "nonpayable",
            "type": "function"
        },
        {
            "inputs": [],
            "name": "reservedForTeam",
            "outputs": [
                {
                    "internalType": "uint256",
                    "name": "",
                    "type": "uint256"
                }
            ],
            "stateMutability": "view",
            "type": "function"
        },
        {
            "inputs": [],
            "name": "revealed",
            "outputs": [
                {
                    "internalType": "bool",
                    "name": "",
                    "type": "bool"
                }
            ],
            "stateMutability": "view",
            "type": "function"
        },
        {
            "inputs": [
                {
                    "internalType": "address",
                    "name": "from",
                    "type": "address"
                },
                {
                    "internalType": "address",
                    "name": "to",
                    "type": "address"
                },
                {
                    "internalType": "uint256",
                    "name": "tokenId",
                    "type": "uint256"
                }
            ],
            "name": "safeTransferFrom",
            "outputs": [],
            "stateMutability": "nonpayable",
            "type": "function"
        },
        {
            "inputs": [
                {
                    "internalType": "address",
                    "name": "from",
                    "type": "address"
                },
                {
                    "internalType": "address",
                    "name": "to",
                    "type": "address"
                },
                {
                    "internalType": "uint256",
                    "name": "tokenId",
                    "type": "uint256"
                },
                {
                    "internalType": "bytes",
                    "name": "_data",
                    "type": "bytes"
                }
            ],
            "name": "safeTransferFrom",
            "outputs": [],
            "stateMutability": "nonpayable",
            "type": "function"
        },
        {
            "inputs": [],
            "name": "saleActive",
            "outputs": [
                {
                    "internalType": "bool",
                    "name": "",
                    "type": "bool"
                }
            ],
            "stateMutability": "view",
            "type": "function"
        },
        {
            "inputs": [
                {
                    "internalType": "address",
                    "name": "operator",
                    "type": "address"
                },
                {
                    "internalType": "bool",
                    "name": "approved",
                    "type": "bool"
                }
            ],
            "name": "setApprovalForAll",
            "outputs": [],
            "stateMutability": "nonpayable",
            "type": "function"
        },
        {
            "inputs": [
                {
                    "internalType": "uint256",
                    "name": "_price",
                    "type": "uint256"
                }
            ],
            "name": "setFinalPublicPrice",
            "outputs": [],
            "stateMutability": "nonpayable",
            "type": "function"
        },
        {
            "inputs": [
                {
                    "internalType": "uint256",
                    "name": "_price",
                    "type": "uint256"
                }
            ],
            "name": "setInitialPublicPrice",
            "outputs": [],
            "stateMutability": "nonpayable",
            "type": "function"
        },
        {
            "inputs": [
                {
                    "internalType": "bytes32",
                    "name": "_merkleRoot",
                    "type": "bytes32"
                }
            ],
            "name": "setMerkleRoot",
            "outputs": [],
            "stateMutability": "nonpayable",
            "type": "function"
        },
        {
            "inputs": [
                {
                    "internalType": "uint256",
                    "name": "_time",
                    "type": "uint256"
                }
            ],
            "name": "setMintIntervals",
            "outputs": [],
            "stateMutability": "nonpayable",
            "type": "function"
        },
        {
            "inputs": [
                {
                    "internalType": "uint256",
                    "name": "_time",
                    "type": "uint256"
                }
            ],
            "name": "setPublicMintDuration",
            "outputs": [],
            "stateMutability": "nonpayable",
            "type": "function"
        },
        {
            "inputs": [
                {
                    "internalType": "string",
                    "name": "baseURI_",
                    "type": "string"
                }
            ],
            "name": "setURI",
            "outputs": [],
            "stateMutability": "nonpayable",
            "type": "function"
        },
        {
            "inputs": [],
            "name": "startAt",
            "outputs": [
                {
                    "internalType": "uint256",
                    "name": "",
                    "type": "uint256"
                }
            ],
            "stateMutability": "view",
            "type": "function"
        },
        {
            "inputs": [
                {
                    "internalType": "bytes4",
                    "name": "interfaceId",
                    "type": "bytes4"
                }
            ],
            "name": "supportsInterface",
            "outputs": [
                {
                    "internalType": "bool",
                    "name": "",
                    "type": "bool"
                }
            ],
            "stateMutability": "view",
            "type": "function"
        },
        {
            "inputs": [],
            "name": "symbol",
            "outputs": [
                {
                    "internalType": "string",
                    "name": "",
                    "type": "string"
                }
            ],
            "stateMutability": "view",
            "type": "function"
        },
        {
            "inputs": [],
            "name": "teamMint",
            "outputs": [
                {
                    "internalType": "bool",
                    "name": "",
                    "type": "bool"
                }
            ],
            "stateMutability": "view",
            "type": "function"
        },
        {
            "inputs": [],
            "name": "togglePause",
            "outputs": [],
            "stateMutability": "nonpayable",
            "type": "function"
        },
        {
            "inputs": [],
            "name": "togglePublicSale",
            "outputs": [],
            "stateMutability": "nonpayable",
            "type": "function"
        },
        {
            "inputs": [],
            "name": "toggleReveal",
            "outputs": [],
            "stateMutability": "nonpayable",
            "type": "function"
        },
        {
            "inputs": [],
            "name": "toggleTeamReveal",
            "outputs": [],
            "stateMutability": "nonpayable",
            "type": "function"
        },
        {
            "inputs": [],
            "name": "toggleWhiteListSale",
            "outputs": [],
            "stateMutability": "nonpayable",
            "type": "function"
        },
        {
            "inputs": [
                {
                    "internalType": "uint256",
                    "name": "tokenId",
                    "type": "uint256"
                }
            ],
            "name": "tokenURI",
            "outputs": [
                {
                    "internalType": "string",
                    "name": "",
                    "type": "string"
                }
            ],
            "stateMutability": "view",
            "type": "function"
        },
        {
            "inputs": [
                {
                    "internalType": "address",
                    "name": "",
                    "type": "address"
                }
            ],
            "name": "totalPublicMint",
            "outputs": [
                {
                    "internalType": "uint256",
                    "name": "",
                    "type": "uint256"
                }
            ],
            "stateMutability": "view",
            "type": "function"
        },
        {
            "inputs": [],
            "name": "totalSupply",
            "outputs": [
                {
                    "internalType": "uint256",
                    "name": "",
                    "type": "uint256"
                }
            ],
            "stateMutability": "view",
            "type": "function"
        },
        {
            "inputs": [
                {
                    "internalType": "address",
                    "name": "",
                    "type": "address"
                }
            ],
            "name": "totalWhiteListMint",
            "outputs": [
                {
                    "internalType": "uint256",
                    "name": "",
                    "type": "uint256"
                }
            ],
            "stateMutability": "view",
            "type": "function"
        },
        {
            "inputs": [
                {
                    "internalType": "address",
                    "name": "from",
                    "type": "address"
                },
                {
                    "internalType": "address",
                    "name": "to",
                    "type": "address"
                },
                {
                    "internalType": "uint256",
                    "name": "tokenId",
                    "type": "uint256"
                }
            ],
            "name": "transferFrom",
            "outputs": [],
            "stateMutability": "nonpayable",
            "type": "function"
        },
        {
            "inputs": [
                {
                    "internalType": "address",
                    "name": "newOwner",
                    "type": "address"
                }
            ],
            "name": "transferOwnership",
            "outputs": [],
            "stateMutability": "nonpayable",
            "type": "function"
        },
        {
            "inputs": [
                {
                    "internalType": "bytes32[]",
                    "name": "_merkleproof",
                    "type": "bytes32[]"
                },
                {
                    "internalType": "uint256",
                    "name": "_amount",
                    "type": "uint256"
                }
            ],
            "name": "whiteListMint",
            "outputs": [],
            "stateMutability": "payable",
            "type": "function"
        },
        {
            "inputs": [],
            "name": "whiteListPrice",
            "outputs": [
                {
                    "internalType": "uint256",
                    "name": "",
                    "type": "uint256"
                }
            ],
            "stateMutability": "view",
            "type": "function"
        },
        {
            "inputs": [],
            "name": "whitelistActive",
            "outputs": [
                {
                    "internalType": "bool",
                    "name": "",
                    "type": "bool"
                }
            ],
            "stateMutability": "view",
            "type": "function"
        },
        {
            "inputs": [],
            "name": "withdraw",
            "outputs": [],
            "stateMutability": "nonpayable",
            "type": "function"
        }
    ],
    "bytecode": "0x60806040526040518060400160405280600781526020017f697066733a2f2f00000000000000000000000000000000000000000000000000815250600a908051906020019062000051929190620002fd565b50600a600b5567058d15e176280000600c5567016345785d8a0000600d556104b0600e556078600f55600f54600e546200008c9190620003ad565b600d54600c546200009e9190620003e5565b620000aa9190620003ad565b6010556702c68af0bb1400006011556000601560006101000a81548160ff0219169083151502179055506000601560016101000a81548160ff0219169083151502179055506000601560026101000a81548160ff0219169083151502179055506000601560036101000a81548160ff0219169083151502179055506000601560046101000a81548160ff0219169083151502179055503480156200014d57600080fd5b506040518060400160405280600881526020017f41756465616d75730000000000000000000000000000000000000000000000008152506040518060400160405280600381526020017f41554400000000000000000000000000000000000000000000000000000000008152508160029080519060200190620001d2929190620002fd565b508060039080519060200190620001eb929190620002fd565b50620001fc6200022a60201b60201c565b600081905550505062000224620002186200022f60201b60201c565b6200023760201b60201c565b620004ed565b600090565b600033905090565b6000600860009054906101000a900473ffffffffffffffffffffffffffffffffffffffff16905081600860006101000a81548173ffffffffffffffffffffffffffffffffffffffff021916908373ffffffffffffffffffffffffffffffffffffffff1602179055508173ffffffffffffffffffffffffffffffffffffffff168173ffffffffffffffffffffffffffffffffffffffff167f8be0079c531659141344cd1fd0a4f28419497f9722a3daafe3b4186f6b6457e060405160405180910390a35050565b8280546200030b906200042a565b90600052602060002090601f0160209004810192826200032f57600085556200037b565b82601f106200034a57805160ff19168380011785556200037b565b828001600101855582156200037b579182015b828111156200037a5782518255916020019190600101906200035d565b5b5090506200038a91906200038e565b5090565b5b80821115620003a95760008160009055506001016200038f565b5090565b6000620003ba8262000420565b9150620003c78362000420565b925082620003da57620003d96200048f565b5b828204905092915050565b6000620003f28262000420565b9150620003ff8362000420565b92508282101562000415576200041462000460565b5b828203905092915050565b6000819050919050565b600060028204905060018216806200044357607f821691505b602082108114156200045a5762000459620004be565b5b50919050565b7f4e487b7100000000000000000000000000000000000000000000000000000000600052601160045260246000fd5b7f4e487b7100000000000000000000000000000000000000000000000000000000600052601260045260246000fd5b7f4e487b7100000000000000000000000000000000000000000000000000000000600052602260045260246000fd5b614e6a80620004fd6000396000f3fe6080604052600436106103355760003560e01c80637cb64759116101ab578063b88d4fde116100f7578063c744656511610095578063e222c7f91161006f578063e222c7f914610b70578063e82c31e814610b87578063e985e9c514610bb2578063f2fde38b14610bef57610335565b8063c744656514610acb578063c87b56dd14610af6578063e092b13314610b3357610335565b8063c08dfd3c116100d1578063c08dfd3c14610a44578063c30bf31814610a6f578063c4ae316814610a8b578063c4df41fa14610aa257610335565b8063b88d4fde146109c5578063ba7a86b8146109ee578063bea568d614610a1957610335565b80639f10132b11610164578063af2d4f141161013e578063af2d4f141461092a578063b02eefed14610955578063b211feab14610980578063b3ab66b0146109a957610335565b80639f10132b146108ad578063a149e32a146108d8578063a22cb4651461090157610335565b80637cb64759146107c35780638bb64a8c146107ec5780638da5cb5b14610803578063930079a21461082e57806395d89b41146108595780639a5d140b1461088457610335565b80634959065711610285578063659588271161022357806368575685116101fd57806368575685146107195780636c0360eb1461074457806370a082311461076f578063715018a6146107ac57610335565b806365958827146106ac57806365f13097146106c357806368428a1b146106ee57610335565b8063518302271161025f57806351830227146106025780635b8ad4291461062d5780635c975abb146106445780636352211e1461066f57610335565b806349590657146105835780634a6512ef146105ae5780634bd25c6f146105d757610335565b806318160ddd116102f257806323b872dd116102cc57806323b872dd146104ef5780632a47f799146105185780633ccfd60b1461054357806342842e0e1461055a57610335565b806318160ddd1461045c5780631c16521c146104875780631d6ec9db146104c457610335565b806301ffc9a71461033a57806302ce58131461037757806302fe5305146103a257806306fdde03146103cb578063081812fc146103f6578063095ea7b314610433575b600080fd5b34801561034657600080fd5b50610361600480360381019061035c9190613e39565b610c18565b60405161036e9190614334565b60405180910390f35b34801561038357600080fd5b5061038c610cfa565b6040516103999190614334565b60405180910390f35b3480156103ae57600080fd5b506103c960048036038101906103c49190613e8b565b610d0d565b005b3480156103d757600080fd5b506103e0610da3565b6040516103ed919061436a565b60405180910390f35b34801561040257600080fd5b5061041d60048036038101906104189190613ecc565b610e35565b60405161042a91906142cd565b60405180910390f35b34801561043f57600080fd5b5061045a60048036038101906104559190613d7c565b610eb1565b005b34801561046857600080fd5b50610471610fbc565b60405161047e919061458c565b60405180910390f35b34801561049357600080fd5b506104ae60048036038101906104a99190613c11565b610fd3565b6040516104bb919061458c565b60405180910390f35b3480156104d057600080fd5b506104d9610feb565b6040516104e6919061458c565b60405180910390f35b3480156104fb57600080fd5b5061051660048036038101906105119190613c76565b610ff1565b005b34801561052457600080fd5b5061052d611001565b60405161053a919061458c565b60405180910390f35b34801561054f57600080fd5b50610558611007565b005b34801561056657600080fd5b50610581600480360381019061057c9190613c76565b6110e0565b005b34801561058f57600080fd5b50610598611100565b6040516105a5919061434f565b60405180910390f35b3480156105ba57600080fd5b506105d560048036038101906105d09190613ecc565b61110a565b005b3480156105e357600080fd5b506105ec611190565b6040516105f9919061458c565b60405180910390f35b34801561060e57600080fd5b506106176112aa565b6040516106249190614334565b60405180910390f35b34801561063957600080fd5b506106426112bd565b005b34801561065057600080fd5b50610659611365565b6040516106669190614334565b60405180910390f35b34801561067b57600080fd5b5061069660048036038101906106919190613ecc565b611378565b6040516106a391906142cd565b60405180910390f35b3480156106b857600080fd5b506106c161138e565b005b3480156106cf57600080fd5b506106d8611436565b6040516106e5919061458c565b60405180910390f35b3480156106fa57600080fd5b5061070361143b565b6040516107109190614334565b60405180910390f35b34801561072557600080fd5b5061072e61144e565b60405161073b919061458c565b60405180910390f35b34801561075057600080fd5b50610759611454565b604051610766919061436a565b60405180910390f35b34801561077b57600080fd5b5061079660048036038101906107919190613c11565b6114e2565b6040516107a3919061458c565b60405180910390f35b3480156107b857600080fd5b506107c16115b2565b005b3480156107cf57600080fd5b506107ea60048036038101906107e59190613e10565b61163a565b005b3480156107f857600080fd5b506108016116c0565b005b34801561080f57600080fd5b50610818611768565b60405161082591906142cd565b60405180910390f35b34801561083a57600080fd5b50610843611792565b604051610850919061458c565b60405180910390f35b34801561086557600080fd5b5061086e611798565b60405161087b919061436a565b60405180910390f35b34801561089057600080fd5b506108ab60048036038101906108a69190613ecc565b61182a565b005b3480156108b957600080fd5b506108c2611924565b6040516108cf919061458c565b60405180910390f35b3480156108e457600080fd5b506108ff60048036038101906108fa9190613ecc565b61192a565b005b34801561090d57600080fd5b5061092860048036038101906109239190613d40565b6119b0565b005b34801561093657600080fd5b5061093f611b28565b60405161094c919061458c565b60405180910390f35b34801561096157600080fd5b5061096a611b2e565b604051610977919061458c565b60405180910390f35b34801561098c57600080fd5b506109a760048036038101906109a29190613ecc565b611b34565b005b6109c360048036038101906109be9190613ecc565b611bba565b005b3480156109d157600080fd5b506109ec60048036038101906109e79190613cc5565b611ed8565b005b3480156109fa57600080fd5b50610a03611f54565b604051610a109190614334565b60405180910390f35b348015610a2557600080fd5b50610a2e611f67565b604051610a3b919061458c565b60405180910390f35b348015610a5057600080fd5b50610a59611f6d565b604051610a66919061458c565b60405180910390f35b610a896004803603810190610a849190613db8565b611f72565b005b348015610a9757600080fd5b50610aa06122f1565b005b348015610aae57600080fd5b50610ac96004803603810190610ac49190613ecc565b612399565b005b348015610ad757600080fd5b50610ae061241f565b604051610aed919061458c565b60405180910390f35b348015610b0257600080fd5b50610b1d6004803603810190610b189190613ecc565b612425565b604051610b2a919061436a565b60405180910390f35b348015610b3f57600080fd5b50610b5a6004803603810190610b559190613c11565b612523565b604051610b67919061458c565b60405180910390f35b348015610b7c57600080fd5b50610b8561253b565b005b348015610b9357600080fd5b50610b9c6125ea565b604051610ba9919061458c565b60405180910390f35b348015610bbe57600080fd5b50610bd96004803603810190610bd49190613c3a565b6125f0565b604051610be69190614334565b60405180910390f35b348015610bfb57600080fd5b50610c166004803603810190610c119190613c11565b612684565b005b60007f80ac58cd000000000000000000000000000000000000000000000000000000007bffffffffffffffffffffffffffffffffffffffffffffffffffffffff1916827bffffffffffffffffffffffffffffffffffffffffffffffffffffffff19161480610ce357507f5b5e139f000000000000000000000000000000000000000000000000000000007bffffffffffffffffffffffffffffffffffffffffffffffffffffffff1916827bffffffffffffffffffffffffffffffffffffffffffffffffffffffff1916145b80610cf35750610cf28261277c565b5b9050919050565b601560019054906101000a900460ff1681565b610d156127e6565b73ffffffffffffffffffffffffffffffffffffffff16610d33611768565b73ffffffffffffffffffffffffffffffffffffffff1614610d89576040517f08c379a0000000000000000000000000000000000000000000000000000000008152600401610d80906144cc565b60405180910390fd5b80600a9080519060200190610d9f929190613993565b5050565b606060028054610db290614846565b80601f0160208091040260200160405190810160405280929190818152602001828054610dde90614846565b8015610e2b5780601f10610e0057610100808354040283529160200191610e2b565b820191906000526020600020905b815481529060010190602001808311610e0e57829003601f168201915b5050505050905090565b6000610e40826127ee565b610e76576040517fcf4700e400000000000000000000000000000000000000000000000000000000815260040160405180910390fd5b6006600083815260200190815260200160002060009054906101000a900473ffffffffffffffffffffffffffffffffffffffff169050919050565b6000610ebc82611378565b90508073ffffffffffffffffffffffffffffffffffffffff168373ffffffffffffffffffffffffffffffffffffffff161415610f24576040517f943f7b8c00000000000000000000000000000000000000000000000000000000815260040160405180910390fd5b8073ffffffffffffffffffffffffffffffffffffffff16610f436127e6565b73ffffffffffffffffffffffffffffffffffffffff1614158015610f755750610f7381610f6e6127e6565b6125f0565b155b15610fac576040517fcfb3b94200000000000000000000000000000000000000000000000000000000815260040160405180910390fd5b610fb783838361283c565b505050565b6000610fc66128ee565b6001546000540303905090565b60136020528060005260406000206000915090505481565b60105481565b610ffc8383836128f3565b505050565b61232881565b61100f6127e6565b73ffffffffffffffffffffffffffffffffffffffff1661102d611768565b73ffffffffffffffffffffffffffffffffffffffff1614611083576040517f08c379a000000000000000000000000000000000000000000000000000000000815260040161107a906144cc565b60405180910390fd5b6000471161109057600080fd5b611098611768565b73ffffffffffffffffffffffffffffffffffffffff166108fc479081150290604051600060405180830381858888f193505050501580156110dd573d6000803e3d6000fd5b50565b6110fb83838360405180602001604052806000815250611ed8565b505050565b6000600954905090565b6111126127e6565b73ffffffffffffffffffffffffffffffffffffffff16611130611768565b73ffffffffffffffffffffffffffffffffffffffff1614611186576040517f08c379a000000000000000000000000000000000000000000000000000000000815260040161117d906144cc565b60405180910390fd5b80600c8190555050565b6000601560009054906101000a900460ff166111e1576040517f08c379a00000000000000000000000000000000000000000000000000000000081526004016111d89061456c565b60405180910390fd5b601560039054906101000a900460ff1615611231576040517f08c379a00000000000000000000000000000000000000000000000000000000081526004016112289061446c565b60405180910390fd5b600060125490508042101561124b57600c549150506112a7565b600e54814261125a9190614752565b1061126a57600d549150506112a7565b6000600f54824261127b9190614752565b61128591906146c7565b90506010548161129591906146f8565b600c546112a29190614752565b925050505b90565b601560029054906101000a900460ff1681565b6112c56127e6565b73ffffffffffffffffffffffffffffffffffffffff166112e3611768565b73ffffffffffffffffffffffffffffffffffffffff1614611339576040517f08c379a0000000000000000000000000000000000000000000000000000000008152600401611330906144cc565b60405180910390fd5b601560029054906101000a900460ff1615601560026101000a81548160ff021916908315150217905550565b601560039054906101000a900460ff1681565b600061138382612da9565b600001519050919050565b6113966127e6565b73ffffffffffffffffffffffffffffffffffffffff166113b4611768565b73ffffffffffffffffffffffffffffffffffffffff161461140a576040517f08c379a0000000000000000000000000000000000000000000000000000000008152600401611401906144cc565b60405180910390fd5b601560049054906101000a900460ff1615601560046101000a81548160ff021916908315150217905550565b600a81565b601560009054906101000a900460ff1681565b60115481565b600a805461146190614846565b80601f016020809104026020016040519081016040528092919081815260200182805461148d90614846565b80156114da5780601f106114af576101008083540402835291602001916114da565b820191906000526020600020905b8154815290600101906020018083116114bd57829003601f168201915b505050505081565b60008073ffffffffffffffffffffffffffffffffffffffff168273ffffffffffffffffffffffffffffffffffffffff16141561154a576040517f8f4eb60400000000000000000000000000000000000000000000000000000000815260040160405180910390fd5b600560008373ffffffffffffffffffffffffffffffffffffffff1673ffffffffffffffffffffffffffffffffffffffff16815260200190815260200160002060000160009054906101000a900467ffffffffffffffff1667ffffffffffffffff169050919050565b6115ba6127e6565b73ffffffffffffffffffffffffffffffffffffffff166115d8611768565b73ffffffffffffffffffffffffffffffffffffffff161461162e576040517f08c379a0000000000000000000000000000000000000000000000000000000008152600401611625906144cc565b60405180910390fd5b6116386000613038565b565b6116426127e6565b73ffffffffffffffffffffffffffffffffffffffff16611660611768565b73ffffffffffffffffffffffffffffffffffffffff16146116b6576040517f08c379a00000000000000000000000000000000000000000000000000000000081526004016116ad906144cc565b60405180910390fd5b8060098190555050565b6116c86127e6565b73ffffffffffffffffffffffffffffffffffffffff166116e6611768565b73ffffffffffffffffffffffffffffffffffffffff161461173c576040517f08c379a0000000000000000000000000000000000000000000000000000000008152600401611733906144cc565b60405180910390fd5b601560019054906101000a900460ff1615601560016101000a81548160ff021916908315150217905550565b6000600860009054906101000a900473ffffffffffffffffffffffffffffffffffffffff16905090565b600b5481565b6060600380546117a790614846565b80601f01602080910402602001604051908101604052809291908181526020018280546117d390614846565b80156118205780601f106117f557610100808354040283529160200191611820565b820191906000526020600020905b81548152906001019060200180831161180357829003601f168201915b5050505050905090565b6118326127e6565b73ffffffffffffffffffffffffffffffffffffffff16611850611768565b73ffffffffffffffffffffffffffffffffffffffff16146118a6576040517f08c379a000000000000000000000000000000000000000000000000000000000815260040161189d906144cc565b60405180910390fd5b601560049054906101000a900460ff166118f5576040517f08c379a00000000000000000000000000000000000000000000000000000000081526004016118ec9061440c565b60405180910390fd5b80600b819055506001601560046101000a81548160ff02191690831515021790555061192133826130fe565b50565b600c5481565b6119326127e6565b73ffffffffffffffffffffffffffffffffffffffff16611950611768565b73ffffffffffffffffffffffffffffffffffffffff16146119a6576040517f08c379a000000000000000000000000000000000000000000000000000000000815260040161199d906144cc565b60405180910390fd5b80600e8190555050565b6119b86127e6565b73ffffffffffffffffffffffffffffffffffffffff168273ffffffffffffffffffffffffffffffffffffffff161415611a1d576040517fb06307db00000000000000000000000000000000000000000000000000000000815260040160405180910390fd5b8060076000611a2a6127e6565b73ffffffffffffffffffffffffffffffffffffffff1673ffffffffffffffffffffffffffffffffffffffff16815260200190815260200160002060008473ffffffffffffffffffffffffffffffffffffffff1673ffffffffffffffffffffffffffffffffffffffff16815260200190815260200160002060006101000a81548160ff0219169083151502179055508173ffffffffffffffffffffffffffffffffffffffff16611ad76127e6565b73ffffffffffffffffffffffffffffffffffffffff167f17307eab39ab6107e8899845ad3d59bd9653f200f220920489ca2b5937696c3183604051611b1c9190614334565b60405180910390a35050565b610bb881565b600f5481565b611b3c6127e6565b73ffffffffffffffffffffffffffffffffffffffff16611b5a611768565b73ffffffffffffffffffffffffffffffffffffffff1614611bb0576040517f08c379a0000000000000000000000000000000000000000000000000000000008152600401611ba7906144cc565b60405180910390fd5b80600d8190555050565b3373ffffffffffffffffffffffffffffffffffffffff163273ffffffffffffffffffffffffffffffffffffffff1614611c28576040517f08c379a0000000000000000000000000000000000000000000000000000000008152600401611c1f9061444c565b60405180910390fd5b601560009054906101000a900460ff16611c77576040517f08c379a0000000000000000000000000000000000000000000000000000000008152600401611c6e9061450c565b60405180910390fd5b601560039054906101000a900460ff1615611cc7576040517f08c379a0000000000000000000000000000000000000000000000000000000008152600401611cbe906143cc565b60405180910390fd5b61232881611cd3610fbc565b611cdd9190614671565b1115611d1e576040517f08c379a0000000000000000000000000000000000000000000000000000000008152600401611d15906143ac565b60405180910390fd5b80611d27611190565b611d3191906146f8565b341015611d73576040517f08c379a0000000000000000000000000000000000000000000000000000000008152600401611d6a9061442c565b60405180910390fd5b600a81601360003373ffffffffffffffffffffffffffffffffffffffff1673ffffffffffffffffffffffffffffffffffffffff16815260200190815260200160002054611dc09190614671565b1115611e01576040517f08c379a0000000000000000000000000000000000000000000000000000000008152600401611df89061448c565b60405180910390fd5b80601360003373ffffffffffffffffffffffffffffffffffffffff1673ffffffffffffffffffffffffffffffffffffffff1681526020019081526020016000206000828254611e509190614671565b92505081905550600081611e62611190565b611e6c91906146f8565b34611e779190614752565b90506000811115611eca573373ffffffffffffffffffffffffffffffffffffffff166108fc829081150290604051600060405180830381858888f19350505050158015611ec8573d6000803e3d6000fd5b505b611ed433836130fe565b5050565b611ee38484846128f3565b611f028373ffffffffffffffffffffffffffffffffffffffff1661311c565b8015611f175750611f158484848461313f565b155b15611f4e576040517fd1a57ed600000000000000000000000000000000000000000000000000000000815260040160405180910390fd5b50505050565b601560049054906101000a900460ff1681565b600d5481565b600281565b3373ffffffffffffffffffffffffffffffffffffffff163273ffffffffffffffffffffffffffffffffffffffff1614611fe0576040517f08c379a0000000000000000000000000000000000000000000000000000000008152600401611fd79061444c565b60405180910390fd5b601560019054906101000a900460ff1661202f576040517f08c379a0000000000000000000000000000000000000000000000000000000008152600401612026906144ec565b60405180910390fd5b610bb88161203b610fbc565b6120459190614671565b1115612086576040517f08c379a000000000000000000000000000000000000000000000000000000000815260040161207d9061438c565b60405180910390fd5b8060115461209491906146f8565b3410156120d6576040517f08c379a00000000000000000000000000000000000000000000000000000000081526004016120cd9061442c565b60405180910390fd5b6000336040516020016120e99190614261565b60405160208183030381529060405280519060200120905061214f848480806020026020016040519081016040528093929190818152602001838360200280828437600081840152601f19601f820116905080830192505050505050506009548361329f565b61218e576040517f08c379a00000000000000000000000000000000000000000000000000000000081526004016121859061452c565b60405180910390fd5b600282601460003373ffffffffffffffffffffffffffffffffffffffff1673ffffffffffffffffffffffffffffffffffffffff168152602001908152602001600020546121db9190614671565b111561221c576040517f08c379a0000000000000000000000000000000000000000000000000000000008152600401612213906144ac565b60405180910390fd5b81601460003373ffffffffffffffffffffffffffffffffffffffff1673ffffffffffffffffffffffffffffffffffffffff168152602001908152602001600020600082825461226b9190614671565b9250508190555060008260115461228291906146f8565b3461228d9190614752565b905060008111156122e0573373ffffffffffffffffffffffffffffffffffffffff166108fc829081150290604051600060405180830381858888f193505050501580156122de573d6000803e3d6000fd5b505b6122ea33846130fe565b5050505050565b6122f96127e6565b73ffffffffffffffffffffffffffffffffffffffff16612317611768565b73ffffffffffffffffffffffffffffffffffffffff161461236d576040517f08c379a0000000000000000000000000000000000000000000000000000000008152600401612364906144cc565b60405180910390fd5b601560039054906101000a900460ff1615601560036101000a81548160ff021916908315150217905550565b6123a16127e6565b73ffffffffffffffffffffffffffffffffffffffff166123bf611768565b73ffffffffffffffffffffffffffffffffffffffff1614612415576040517f08c379a000000000000000000000000000000000000000000000000000000000815260040161240c906144cc565b60405180910390fd5b80600f8190555050565b60125481565b6060612430826127ee565b61246f576040517f08c379a00000000000000000000000000000000000000000000000000000000081526004016124669061454c565b60405180910390fd5b601560029054906101000a900460ff16156124f457600061248e6132b6565b9050600060018461249f9190614671565b90506000825114156124c057604051806020016040528060008152506124eb565b816124ca82613348565b6040516020016124db92919061427c565b6040516020818303038152906040525b9250505061251e565b6124fc6132b6565b60405160200161250c91906142ab565b60405160208183030381529060405290505b919050565b60146020528060005260406000206000915090505481565b6125436127e6565b73ffffffffffffffffffffffffffffffffffffffff16612561611768565b73ffffffffffffffffffffffffffffffffffffffff16146125b7576040517f08c379a00000000000000000000000000000000000000000000000000000000081526004016125ae906144cc565b60405180910390fd5b601560009054906101000a900460ff1615601560006101000a81548160ff02191690831515021790555042601281905550565b600e5481565b6000600760008473ffffffffffffffffffffffffffffffffffffffff1673ffffffffffffffffffffffffffffffffffffffff16815260200190815260200160002060008373ffffffffffffffffffffffffffffffffffffffff1673ffffffffffffffffffffffffffffffffffffffff16815260200190815260200160002060009054906101000a900460ff16905092915050565b61268c6127e6565b73ffffffffffffffffffffffffffffffffffffffff166126aa611768565b73ffffffffffffffffffffffffffffffffffffffff1614612700576040517f08c379a00000000000000000000000000000000000000000000000000000000081526004016126f7906144cc565b60405180910390fd5b600073ffffffffffffffffffffffffffffffffffffffff168173ffffffffffffffffffffffffffffffffffffffff161415612770576040517f08c379a0000000000000000000000000000000000000000000000000000000008152600401612767906143ec565b60405180910390fd5b61277981613038565b50565b60007f01ffc9a7000000000000000000000000000000000000000000000000000000007bffffffffffffffffffffffffffffffffffffffffffffffffffffffff1916827bffffffffffffffffffffffffffffffffffffffffffffffffffffffff1916149050919050565b600033905090565b6000816127f96128ee565b11158015612808575060005482105b8015612835575060046000838152602001908152602001600020600001601c9054906101000a900460ff16155b9050919050565b826006600084815260200190815260200160002060006101000a81548173ffffffffffffffffffffffffffffffffffffffff021916908373ffffffffffffffffffffffffffffffffffffffff160217905550818373ffffffffffffffffffffffffffffffffffffffff168273ffffffffffffffffffffffffffffffffffffffff167f8c5be1e5ebec7d5bd14f71427d1e84f3dd0314c0f7b2291e5b200ac8c7c3b92560405160405180910390a4505050565b600090565b60006128fe82612da9565b90508373ffffffffffffffffffffffffffffffffffffffff16816000015173ffffffffffffffffffffffffffffffffffffffff1614612969576040517fa114810000000000000000000000000000000000000000000000000000000000815260040160405180910390fd5b60008473ffffffffffffffffffffffffffffffffffffffff1661298a6127e6565b73ffffffffffffffffffffffffffffffffffffffff1614806129b957506129b8856129b36127e6565b6125f0565b5b806129fe57506129c76127e6565b73ffffffffffffffffffffffffffffffffffffffff166129e684610e35565b73ffffffffffffffffffffffffffffffffffffffff16145b905080612a37576040517f59c896be00000000000000000000000000000000000000000000000000000000815260040160405180910390fd5b600073ffffffffffffffffffffffffffffffffffffffff168473ffffffffffffffffffffffffffffffffffffffff161415612a9e576040517fea553b3400000000000000000000000000000000000000000000000000000000815260040160405180910390fd5b612aab85858560016134f5565b612ab76000848761283c565b6001600560008773ffffffffffffffffffffffffffffffffffffffff1673ffffffffffffffffffffffffffffffffffffffff16815260200190815260200160002060000160008282829054906101000a900467ffffffffffffffff160392506101000a81548167ffffffffffffffff021916908367ffffffffffffffff1602179055506001600560008673ffffffffffffffffffffffffffffffffffffffff1673ffffffffffffffffffffffffffffffffffffffff16815260200190815260200160002060000160008282829054906101000a900467ffffffffffffffff160192506101000a81548167ffffffffffffffff021916908367ffffffffffffffff1602179055506000600460008581526020019081526020016000209050848160000160006101000a81548173ffffffffffffffffffffffffffffffffffffffff021916908373ffffffffffffffffffffffffffffffffffffffff160217905550428160000160146101000a81548167ffffffffffffffff021916908367ffffffffffffffff16021790555060006001850190506000600460008381526020019081526020016000209050600073ffffffffffffffffffffffffffffffffffffffff168160000160009054906101000a900473ffffffffffffffffffffffffffffffffffffffff1673ffffffffffffffffffffffffffffffffffffffff161415612d37576000548214612d3657878160000160006101000a81548173ffffffffffffffffffffffffffffffffffffffff021916908373ffffffffffffffffffffffffffffffffffffffff16021790555084602001518160000160146101000a81548167ffffffffffffffff021916908367ffffffffffffffff1602179055505b5b505050828473ffffffffffffffffffffffffffffffffffffffff168673ffffffffffffffffffffffffffffffffffffffff167fddf252ad1be2c89b69c2b068fc378daa952ba7f163c4a11628f55a4df523b3ef60405160405180910390a4612da285858560016134fb565b5050505050565b612db1613a19565b600082905080612dbf6128ee565b11158015612dce575060005481105b15613001576000600460008381526020019081526020016000206040518060600160405290816000820160009054906101000a900473ffffffffffffffffffffffffffffffffffffffff1673ffffffffffffffffffffffffffffffffffffffff1673ffffffffffffffffffffffffffffffffffffffff1681526020016000820160149054906101000a900467ffffffffffffffff1667ffffffffffffffff1667ffffffffffffffff16815260200160008201601c9054906101000a900460ff16151515158152505090508060400151612fff57600073ffffffffffffffffffffffffffffffffffffffff16816000015173ffffffffffffffffffffffffffffffffffffffff1614612ee3578092505050613033565b5b600115612ffe57818060019003925050600460008381526020019081526020016000206040518060600160405290816000820160009054906101000a900473ffffffffffffffffffffffffffffffffffffffff1673ffffffffffffffffffffffffffffffffffffffff1673ffffffffffffffffffffffffffffffffffffffff1681526020016000820160149054906101000a900467ffffffffffffffff1667ffffffffffffffff1667ffffffffffffffff16815260200160008201601c9054906101000a900460ff1615151515815250509050600073ffffffffffffffffffffffffffffffffffffffff16816000015173ffffffffffffffffffffffffffffffffffffffff1614612ff9578092505050613033565b612ee4565b5b505b6040517fdf2d9b4200000000000000000000000000000000000000000000000000000000815260040160405180910390fd5b919050565b6000600860009054906101000a900473ffffffffffffffffffffffffffffffffffffffff16905081600860006101000a81548173ffffffffffffffffffffffffffffffffffffffff021916908373ffffffffffffffffffffffffffffffffffffffff1602179055508173ffffffffffffffffffffffffffffffffffffffff168173ffffffffffffffffffffffffffffffffffffffff167f8be0079c531659141344cd1fd0a4f28419497f9722a3daafe3b4186f6b6457e060405160405180910390a35050565b613118828260405180602001604052806000815250613501565b5050565b6000808273ffffffffffffffffffffffffffffffffffffffff163b119050919050565b60008373ffffffffffffffffffffffffffffffffffffffff1663150b7a026131656127e6565b8786866040518563ffffffff1660e01b815260040161318794939291906142e8565b602060405180830381600087803b1580156131a157600080fd5b505af19250505080156131d257506040513d601f19601f820116820180604052508101906131cf9190613e62565b60015b61324c573d8060008114613202576040519150601f19603f3d011682016040523d82523d6000602084013e613207565b606091505b50600081511415613244576040517fd1a57ed600000000000000000000000000000000000000000000000000000000815260040160405180910390fd5b805181602001fd5b63150b7a0260e01b7bffffffffffffffffffffffffffffffffffffffffffffffffffffffff1916817bffffffffffffffffffffffffffffffffffffffffffffffffffffffff191614915050949350505050565b6000826132ac8584613513565b1490509392505050565b6060600a80546132c590614846565b80601f01602080910402602001604051908101604052809291908181526020018280546132f190614846565b801561333e5780601f106133135761010080835404028352916020019161333e565b820191906000526020600020905b81548152906001019060200180831161332157829003601f168201915b5050505050905090565b60606000821415613390576040518060400160405280600181526020017f300000000000000000000000000000000000000000000000000000000000000081525090506134f0565b600082905060005b600082146133c25780806133ab906148a9565b915050600a826133bb91906146c7565b9150613398565b60008167ffffffffffffffff811115613404577f4e487b7100000000000000000000000000000000000000000000000000000000600052604160045260246000fd5b6040519080825280601f01601f1916602001820160405280156134365781602001600182028036833780820191505090505b5090505b600085146134e95760018261344f9190614752565b9150600a8561345e9190614916565b603061346a9190614671565b60f81b8183815181106134a6577f4e487b7100000000000000000000000000000000000000000000000000000000600052603260045260246000fd5b60200101907effffffffffffffffffffffffffffffffffffffffffffffffffffffffffffff1916908160001a905350600a856134e291906146c7565b945061343a565b8093505050505b919050565b50505050565b50505050565b61350e83838360016135ae565b505050565b60008082905060005b84518110156135a3576000858281518110613560577f4e487b7100000000000000000000000000000000000000000000000000000000600052603260045260246000fd5b602002602001015190508083116135825761357b838261397c565b925061358f565b61358c818461397c565b92505b50808061359b906148a9565b91505061351c565b508091505092915050565b600080549050600073ffffffffffffffffffffffffffffffffffffffff168573ffffffffffffffffffffffffffffffffffffffff16141561361b576040517f2e07630000000000000000000000000000000000000000000000000000000000815260040160405180910390fd5b6000841415613656576040517fb562e8dd00000000000000000000000000000000000000000000000000000000815260040160405180910390fd5b61366360008683876134f5565b83600560008773ffffffffffffffffffffffffffffffffffffffff1673ffffffffffffffffffffffffffffffffffffffff16815260200190815260200160002060000160008282829054906101000a900467ffffffffffffffff160192506101000a81548167ffffffffffffffff021916908367ffffffffffffffff16021790555083600560008773ffffffffffffffffffffffffffffffffffffffff1673ffffffffffffffffffffffffffffffffffffffff16815260200190815260200160002060000160088282829054906101000a900467ffffffffffffffff160192506101000a81548167ffffffffffffffff021916908367ffffffffffffffff160217905550846004600083815260200190815260200160002060000160006101000a81548173ffffffffffffffffffffffffffffffffffffffff021916908373ffffffffffffffffffffffffffffffffffffffff160217905550426004600083815260200190815260200160002060000160146101000a81548167ffffffffffffffff021916908367ffffffffffffffff16021790555060008190506000858201905083801561382d575061382c8773ffffffffffffffffffffffffffffffffffffffff1661311c565b5b156138f3575b818773ffffffffffffffffffffffffffffffffffffffff16600073ffffffffffffffffffffffffffffffffffffffff167fddf252ad1be2c89b69c2b068fc378daa952ba7f163c4a11628f55a4df523b3ef60405160405180910390a46138a2600088848060010195508861313f565b6138d8576040517fd1a57ed600000000000000000000000000000000000000000000000000000000815260040160405180910390fd5b808214156138335782600054146138ee57600080fd5b61395f565b5b818060010192508773ffffffffffffffffffffffffffffffffffffffff16600073ffffffffffffffffffffffffffffffffffffffff167fddf252ad1be2c89b69c2b068fc378daa952ba7f163c4a11628f55a4df523b3ef60405160405180910390a4808214156138f4575b81600081905550505061397560008683876134fb565b5050505050565b600082600052816020526040600020905092915050565b82805461399f90614846565b90600052602060002090601f0160209004810192826139c15760008555613a08565b82601f106139da57805160ff1916838001178555613a08565b82800160010185558215613a08579182015b82811115613a075782518255916020019190600101906139ec565b5b509050613a159190613a5c565b5090565b6040518060600160405280600073ffffffffffffffffffffffffffffffffffffffff168152602001600067ffffffffffffffff1681526020016000151581525090565b5b80821115613a75576000816000905550600101613a5d565b5090565b6000613a8c613a87846145cc565b6145a7565b905082815260208101848484011115613aa457600080fd5b613aaf848285614804565b509392505050565b6000613aca613ac5846145fd565b6145a7565b905082815260208101848484011115613ae257600080fd5b613aed848285614804565b509392505050565b600081359050613b0481614dc1565b92915050565b60008083601f840112613b1c57600080fd5b8235905067ffffffffffffffff811115613b3557600080fd5b602083019150836020820283011115613b4d57600080fd5b9250929050565b600081359050613b6381614dd8565b92915050565b600081359050613b7881614def565b92915050565b600081359050613b8d81614e06565b92915050565b600081519050613ba281614e06565b92915050565b600082601f830112613bb957600080fd5b8135613bc9848260208601613a79565b91505092915050565b600082601f830112613be357600080fd5b8135613bf3848260208601613ab7565b91505092915050565b600081359050613c0b81614e1d565b92915050565b600060208284031215613c2357600080fd5b6000613c3184828501613af5565b91505092915050565b60008060408385031215613c4d57600080fd5b6000613c5b85828601613af5565b9250506020613c6c85828601613af5565b9150509250929050565b600080600060608486031215613c8b57600080fd5b6000613c9986828701613af5565b9350506020613caa86828701613af5565b9250506040613cbb86828701613bfc565b9150509250925092565b60008060008060808587031215613cdb57600080fd5b6000613ce987828801613af5565b9450506020613cfa87828801613af5565b9350506040613d0b87828801613bfc565b925050606085013567ffffffffffffffff811115613d2857600080fd5b613d3487828801613ba8565b91505092959194509250565b60008060408385031215613d5357600080fd5b6000613d6185828601613af5565b9250506020613d7285828601613b54565b9150509250929050565b60008060408385031215613d8f57600080fd5b6000613d9d85828601613af5565b9250506020613dae85828601613bfc565b9150509250929050565b600080600060408486031215613dcd57600080fd5b600084013567ffffffffffffffff811115613de757600080fd5b613df386828701613b0a565b93509350506020613e0686828701613bfc565b9150509250925092565b600060208284031215613e2257600080fd5b6000613e3084828501613b69565b91505092915050565b600060208284031215613e4b57600080fd5b6000613e5984828501613b7e565b91505092915050565b600060208284031215613e7457600080fd5b6000613e8284828501613b93565b91505092915050565b600060208284031215613e9d57600080fd5b600082013567ffffffffffffffff811115613eb757600080fd5b613ec384828501613bd2565b91505092915050565b600060208284031215613ede57600080fd5b6000613eec84828501613bfc565b91505092915050565b613efe81614786565b82525050565b613f15613f1082614786565b6148f2565b82525050565b613f2481614798565b82525050565b613f33816147a4565b82525050565b6000613f448261462e565b613f4e8185614644565b9350613f5e818560208601614813565b613f6781614a03565b840191505092915050565b6000613f7d82614639565b613f878185614655565b9350613f97818560208601614813565b613fa081614a03565b840191505092915050565b6000613fb682614639565b613fc08185614666565b9350613fd0818560208601614813565b80840191505092915050565b6000613fe9603283614655565b9150613ff482614a21565b604082019050919050565b600061400c602383614655565b915061401782614a70565b604082019050919050565b600061402f601483614655565b915061403a82614abf565b602082019050919050565b6000614052602683614655565b915061405d82614ae8565b604082019050919050565b6000614075600b83614666565b915061408082614b37565b600b82019050919050565b6000614098601783614655565b91506140a382614b60565b602082019050919050565b60006140bb601283614655565b91506140c682614b89565b602082019050919050565b60006140de603783614655565b91506140e982614bb2565b604082019050919050565b6000614101600f83614655565b915061410c82614c01565b602082019050919050565b6000614124602083614655565b915061412f82614c2a565b602082019050919050565b6000614147602483614655565b915061415282614c53565b604082019050919050565b600061416a600583614666565b915061417582614ca2565b600582019050919050565b600061418d602083614655565b915061419882614ccb565b602082019050919050565b60006141b0601983614655565b91506141bb82614cf4565b602082019050919050565b60006141d3601683614655565b91506141de82614d1d565b602082019050919050565b60006141f6600d83614655565b915061420182614d46565b602082019050919050565b6000614219601283614655565b915061422482614d6f565b602082019050919050565b600061423c601483614655565b915061424782614d98565b602082019050919050565b61425b816147fa565b82525050565b600061426d8284613f04565b60148201915081905092915050565b60006142888285613fab565b91506142948284613fab565b915061429f8261415d565b91508190509392505050565b60006142b78284613fab565b91506142c282614068565b915081905092915050565b60006020820190506142e26000830184613ef5565b92915050565b60006080820190506142fd6000830187613ef5565b61430a6020830186613ef5565b6143176040830185614252565b81810360608301526143298184613f39565b905095945050505050565b60006020820190506143496000830184613f1b565b92915050565b60006020820190506143646000830184613f2a565b92915050565b600060208201905081810360008301526143848184613f72565b905092915050565b600060208201905081810360008301526143a581613fdc565b9050919050565b600060208201905081810360008301526143c581613fff565b9050919050565b600060208201905081810360008301526143e581614022565b9050919050565b6000602082019050818103600083015261440581614045565b9050919050565b600060208201905081810360008301526144258161408b565b9050919050565b60006020820190508181036000830152614445816140ae565b9050919050565b60006020820190508181036000830152614465816140d1565b9050919050565b60006020820190508181036000830152614485816140f4565b9050919050565b600060208201905081810360008301526144a581614117565b9050919050565b600060208201905081810360008301526144c58161413a565b9050919050565b600060208201905081810360008301526144e581614180565b9050919050565b60006020820190508181036000830152614505816141a3565b9050919050565b60006020820190508181036000830152614525816141c6565b9050919050565b60006020820190508181036000830152614545816141e9565b9050919050565b600060208201905081810360008301526145658161420c565b9050919050565b600060208201905081810360008301526145858161422f565b9050919050565b60006020820190506145a16000830184614252565b92915050565b60006145b16145c2565b90506145bd8282614878565b919050565b6000604051905090565b600067ffffffffffffffff8211156145e7576145e66149d4565b5b6145f082614a03565b9050602081019050919050565b600067ffffffffffffffff821115614618576146176149d4565b5b61462182614a03565b9050602081019050919050565b600081519050919050565b600081519050919050565b600082825260208201905092915050565b600082825260208201905092915050565b600081905092915050565b600061467c826147fa565b9150614687836147fa565b9250827fffffffffffffffffffffffffffffffffffffffffffffffffffffffffffffffff038211156146bc576146bb614947565b5b828201905092915050565b60006146d2826147fa565b91506146dd836147fa565b9250826146ed576146ec614976565b5b828204905092915050565b6000614703826147fa565b915061470e836147fa565b9250817fffffffffffffffffffffffffffffffffffffffffffffffffffffffffffffffff048311821515161561474757614746614947565b5b828202905092915050565b600061475d826147fa565b9150614768836147fa565b92508282101561477b5761477a614947565b5b828203905092915050565b6000614791826147da565b9050919050565b60008115159050919050565b6000819050919050565b60007fffffffff0000000000000000000000000000000000000000000000000000000082169050919050565b600073ffffffffffffffffffffffffffffffffffffffff82169050919050565b6000819050919050565b82818337600083830152505050565b60005b83811015614831578082015181840152602081019050614816565b83811115614840576000848401525b50505050565b6000600282049050600182168061485e57607f821691505b60208210811415614872576148716149a5565b5b50919050565b61488182614a03565b810181811067ffffffffffffffff821117156148a05761489f6149d4565b5b80604052505050565b60006148b4826147fa565b91507fffffffffffffffffffffffffffffffffffffffffffffffffffffffffffffffff8214156148e7576148e6614947565b5b600182019050919050565b60006148fd82614904565b9050919050565b600061490f82614a14565b9050919050565b6000614921826147fa565b915061492c836147fa565b92508261493c5761493b614976565b5b828206905092915050565b7f4e487b7100000000000000000000000000000000000000000000000000000000600052601160045260246000fd5b7f4e487b7100000000000000000000000000000000000000000000000000000000600052601260045260246000fd5b7f4e487b7100000000000000000000000000000000000000000000000000000000600052602260045260246000fd5b7f4e487b7100000000000000000000000000000000000000000000000000000000600052604160045260246000fd5b6000601f19601f8301169050919050565b60008160601b9050919050565b7f54686520707265206d61726b6574207768697465206c6973742073616c65206c60008201527f696d697420686173206265656e206869742e0000000000000000000000000000602082015250565b7f546865207075626c69632073616c65206c696d697420686173206265656e206860008201527f69742e0000000000000000000000000000000000000000000000000000000000602082015250565b7f53616c6520686173206265656e20706175736564000000000000000000000000600082015250565b7f4f776e61626c653a206e6577206f776e657220697320746865207a65726f206160008201527f6464726573730000000000000000000000000000000000000000000000000000602082015250565b7f68696464656e2e6a736f6e000000000000000000000000000000000000000000600082015250565b7f5465616d206d696e7420686173206e6f7420626567756e000000000000000000600082015250565b7f496e73756666696369656e742065746865720000000000000000000000000000600082015250565b7f506c6561736520646f206e6f742063616c6c207468697320636f6e747261637460008201527f207573696e6720616e6f7468657220636f6e7472616374000000000000000000602082015250565b7f53616c6520686173207061757365640000000000000000000000000000000000600082015250565b7f596f75206861766520616c7265616479206d696e7465642031302074696d6573600082015250565b7f4d6178696d756d206f662074776f206d696e747320706572207472616e73616360008201527f74696f6e00000000000000000000000000000000000000000000000000000000602082015250565b7f2e6a736f6e000000000000000000000000000000000000000000000000000000600082015250565b7f4f776e61626c653a2063616c6c6572206973206e6f7420746865206f776e6572600082015250565b7f7768697465206c697374206e6f74206163746976652079657400000000000000600082015250565b7f53616c6520686173206e6f7420626567756e2079657400000000000000000000600082015250565b7f496e76616c69642050726f6f6600000000000000000000000000000000000000600082015250565b7f4e6f6e206578697374656e7420746f6b656e0000000000000000000000000000600082015250565b7f53616c6520686173206e6f742073746172746564000000000000000000000000600082015250565b614dca81614786565b8114614dd557600080fd5b50565b614de181614798565b8114614dec57600080fd5b50565b614df8816147a4565b8114614e0357600080fd5b50565b614e0f816147ae565b8114614e1a57600080fd5b50565b614e26816147fa565b8114614e3157600080fd5b5056fea2646970667358221220e8667221c1fb8b25a3d1014376d450a931acc0d3b5db4d37deac18ee79129e8064736f6c63430008040033",
    "linkReferences": {},
    "deployedLinkReferences": {}
}